:020000040800F2
:10000000088D0120F1010008EDC3000809A50008D2
:100010006DC300088510000805DB00080000000023
:100020000000000000000000000000001DC80008E3
:10003000771F000800000000F9C400081FC800086E
:100040000B0200080B0200080B0200080B0200085C
:100050000B0200080B0200080B0200080B0200084C
:10006000811F0008871F00080B0200084D1E0008B2
:10007000591E0008651E0008711E00087D1E00083C
:10008000891E00080B0200080B0200080B02000882
:100090000B0200080B0200080B0200088D1F00086D
:1000A0000B020008D1C80008B5C80008A9C800089C
:1000B0000B0200080B0200080B0200080B020008EC
:1000C0000B0200080DA500080B0200084DC5000832
:1000D0000B020008EDDA00080B020008F9DA00084C
:1000E000791F00080B0200080B0200080B02000831
:1000F0000B0200080B0200080B0200080B020008AC
:100100000B0200080B0200080B0200080B0200089B
:100110000B0200080B020008EDC80008F9C800082F
:10012000951E0008A11E0008AD1E0008B91E00089B
:10013000C51E00080B0200080B0200080B02000895
:100140000B0200080B0200080B0200080B0200085B
:100150000B0200080B0200080B0200080B0200084B
:100160000B0200080B0200080B0200080B0200083B
:100170000B0200080B0200080B0200080B0200082B
:100180000B0200080B0200080B0200080B0200081B
:100190000B020008000000000B0200080B02000820
:1001A0000B0200080B0200080B0200080B020008FB
:1001B0000B0200080B0200080B0200080B020008EB
:1001C0000B0200080B0200080B0200080B020008DB
:1001D0000B0200080B020008DFF810D000F0A0FAB4
:1001E00000480047C1270308AFF30080088D0120B5
:1001F0000648804706480047FEE7FEE7FEE7FEE7C1
:10020000FEE7FEE7FEE7FEE7FEE7FEE799C8000827
:10021000D90100082DE9F05F0546002092469B4673
:1002200088460646814640241BE02846414647460C
:10023000224600F0ADF853465A46C01A914110D3F9
:1002400011461846224600F094F82D1A67EB010873
:100250004F4622460120002100F08BF817EB0009E1
:100260004E41201EA4F10104DFDC484631462A46F7
:100270004346BDE8F09F2DE9F0410024061B2546CA
:1002800071F1000605DA01240027D0EB070067EBC7
:100290000101161E73F1000605DA0027D2EB0702F2
:1002A000012567EB0303FFF7B5FF86460E461746A9
:1002B0009C46AC4204D00025D0EB050E65EB010650
:1002C00024B10020D2EB000760EB030C70463146EE
:1002D0003A466346BDE8F08140EA01039B0703D03C
:1002E00009E008C9121F08C0042AFAD203E011F875
:1002F000013B00F8013B521EF9D27047D2B201E037
:1003000000F8012B491EFBD270470022F6E710B51A
:1003100013460A4604461946FFF7F0FF204610BD73
:1003200000F0004230F000400AD0C10D01F56071CC
:10033000C0F3160042EA0151C2084007114370475A
:1003400000200146704730B50B46014600202022B0
:10035000012409E021FA02F59D4205D303FA02F5D2
:10036000491B04FA02F52844151EA2F10102F1DC32
:1003700030BD202A04DB203A00FA02F10020704749
:100380009140C2F1200320FA03F3194390407047D3
:10039000202A04DB203A21FA02F00021704721FADA
:1003A00002F3D040C2F12002914008431946704741
:1003B0002DE9FE4F804681EA0300C00F0C460090F5
:1003C00021F0004123F00045B8EB0200A94105D21D
:1003D0004046214690461C460B46024623F000400C
:1003E000104347D0270DC7F30A00C3F30A51029008
:1003F000401A019040286BDAC3F3130040F4801BCD
:100400000098924620B10023D2EB030A63EB0B0B5A
:1004100001985946C0F140025046FFF7AAFF064630
:100420000D4650465946019A00F08CF910EB080031
:100430006141002487EA115284EAE7731A4340D0ED
:10044000009A62B3019A012A4FEA075215DC001B99
:1004500061EB02014FF0004202EA0752CDE900428F
:10046000001C41F5801132462B4600F08CF903B098
:10047000BDE8F08F40462146F9E7001B61EB020121
:10048000001C41F5801300185B412018A2F50017ED
:1004900047EB030140EAD570B6196D4111E06D08D4
:1004A0004FEA360645EAC0754FEA0752001B61EB7A
:1004B0000201001C41F5801149084FEA3000001983
:1004C000514132462B4603B0BDE8F04F00F04CB925
:1004D0000098012240000023D0EB020263EBE0739E
:1004E000009821464FEAE074B8EB000061EB04018C
:1004F000E9E783F000435BE781F0004158E72DE92D
:10050000FE4F81EA030404F0004421F0004100940E
:100510004FF0000B23F0004350EA01045ED052EA92
:1005200003045BD0C3F30A54C1F30A552C44A4F26C
:10053000F3340194A0FB0254C1F3130141F4801180
:10054000C3F3130343F4801301FB024400FB034E87
:10055000840A970A44EA815447EA8357A4FB076850
:1005600002958D0A05FB07854FEA932C04FB0C547A
:100570002705029D4FEA065847EA1637B5EB0805EE
:100580006EEB070C870E920E47EA811742EA831240
:10059000A7FB0201B6EB0B0164EB00042B0D43EA51
:1005A0000C335E1844EB1C50DA465146E7FB02015F
:1005B000C5F313044FEA0B3343EA14534FEA0432F2
:1005C000019C43EA0603A4F10C040294009CCDE9CB
:1005D00000B400F0D8F803B0BDE8F08F0020014669
:1005E000F9E72DE9F04D81EA030404F0004B21F016
:1005F000004514464FF0000A23F0004150EA05027E
:1006000020D054EA01021DD0C5F30A570246C5F3B3
:100610001303C1F31300C1F30A5640F4801543F4E9
:100620008013A7EB0608101BD64608F2FD3873EBC3
:10063000050002D308F1010801E092185B41B8F10E
:10064000000F03DA00200146BDE8F08D00204FF4D2
:100650008011064684460EE0171B73EB050705D391
:10066000121B63EB050306434CEA010C49084FEAF1
:10067000300092185B4150EA0107EDD152EA0300C5
:1006800012D082EA040083EA0501084305D0101B5A
:10069000AB4106D20122002306E000224FF00043C6
:1006A00002E06FF0010253101AEB06004CEB085108
:1006B00010EB0A0041EB0B01BDE8F04D00F054B81F
:1006C000C1F30A52C1F3130140F2FF3341F4801128
:1006D0009A4202DA00200146704740F233439A42C0
:1006E000A2F2334202DC5242FFF752BEFFF741BE94
:1006F00030B5041E71F1000404DB4FF000444042A9
:1007000064EB0101141E73F1000405DB1C464FF07D
:100710000043524263EB0403994208BF904230BD4C
:10072000064C074D06E0E06840F0010394E807003E
:1007300098471034AC42F6D3FFF752FD20900508DD
:1007400040900508202A06DBCB17203A41FA02F038
:1007500043EAE07306E041FA02F3D040C2F120021E
:10076000914008431946704710B5141E73F10004F8
:1007700008DA401C41F1000192185B411A4301D193
:1007800020F0010010BD2DE9F04D92469B4611B1BD
:10079000B1FA81F202E0B0FA80F220329046FFF71F
:1007A000E8FD04460F4640EA0A0041EA0B015346C1
:1007B0005A46084313D0114653EA010019D0C8F134
:1007C00040025046FFF7E4FD05460E4650465946A6
:1007D0004246FFF7CEFD084305D0012004E0204645
:1007E0003946BDE8F08D0020054346EAE0762C430B
:1007F00037430A986305E40AA0EB08000022FD0ACB
:1008000044EA47540A3002D500200146E9E70105D1
:1008100010196941DDE9084500196941BDE8F04D4D
:10082000A2E770B58C1810F8015B15F0070301D131
:1008300010F8013B2A1106D110F8012B03E010F843
:10084000016B01F8016B5B1EF9D12B0705D4002366
:10085000521E0DD401F8013BFAE710F8013BCB1A08
:10086000921C03E013F8015B01F8015B521EF9D5FD
:10087000A142D8D3002070BD6423B74A0021B748F5
:1008800008F054BD10B5B44824380CF09BFCB248B5
:10089000243880ED010A10BDAF4824380CF0C0BCEC
:1008A000AD49AF4BA43901F1800091ED1D0A10EE66
:1008B000102A9A4217DD01220276D1ED1D0AB3EE0D
:1008C000040A30EEC01ADFEDA70A41EE000ABCEEC2
:1008D000E00A10EE101A4183428B4FF47A718A427B
:1008E00004D9418302E0002101764183408B0DF061
:1008F00007BB10B52DED048B974C9B49A43C9FED95
:100900009B8ADFED9B8ADFED9B9A884214D10421FC
:1009100020460BF02CFD2061206900EE100AB8EE95
:10092000400A20EE080A20EE280AC0EE290AC4ED8B
:10093000190ABDEC048B10BD8F499FED909A884237
:1009400011D18548042190380BF011FD6062606A76
:1009500000EE100AB8EE400A20EE080A20EE090A5E
:1009600084ED1A0AE5E78649884213D17A480421C2
:100970007C380BF0FCFCA063A06B00EE100AB8EE14
:10098000400A20EE080A20EE280AC0EE290AC4ED2B
:100990001B0ACEE77B49884211D16F480421683891
:1009A0000BF0E5FCE064E06C00EE100AB8EE400AE3
:1009B00020EE080A20EE090A84ED1C0AB9E7724904
:1009C0008842B6D16448042154380BF0D0FC20662C
:1009D0006E4801886D4822380288891A00EE101A84
:1009E000B8EEC00ADFED6A0A008880EE801A00EED9
:1009F000100A206EB8EE400A00EE900AF8EE600A87
:100A0000DFED641A10EEA10AF3EE0E0A41EE000AC1
:100A1000C4ED1D0A8DE710B54F490422A439524890
:100A200002F062FD4C4904229039534802F05CFD0B
:100A3000494904227C39524802F056FD46490422B5
:100A40006839504802F050FD43490422BDE8104087
:100A500054394D4802F048BD7CB540281CD007DC15
:100A6000042815D0082833D1BDE87C403CF04ABBAF
:100A700080282ED0B0F5806F2AD1474E96F84C00D2
:100A800070B100F0BFFFBDE87C4044A00DF018B984
:100A9000BDE87C403CF07CBBBDE87C403CF042BB08
:100AA00000F0AEFE2C48A43890ED190A10EE100AA2
:100AB000FFF736FC04460D46F06BFFF731FC41ECC6
:100AC000100B3BA053EC102BCDE900450DF0F8F8CE
:100AD0007CBDBDE87C4046A00DF0F2B870B503F0D7
:100AE0003FFA47490A68821A052A33D30860454D00
:100AF0002868416A184C243CA4F8BA10B4F8BA101B
:100B0000002927D00068C0F3001084F8B40094F8DE
:100B1000B410012099B104F8BD0FA078401CA0705A
:100B2000BD3C3CF011FB29680020486294F8B400F9
:100B300070B14FF0FF30BDE870402FF013B804F8EB
:100B4000BC0FA078401CA070BC3C3CF00FFBEAE757
:100B50000120F0E770BD000000020020C0770020F7
:100B60000000A0410000C843586E00203333533AC0
:100B70000000964266669640C46E00209E734E400A
:100B8000306F00209C6F002008700020CA75FF1F86
:100B90000000A042CDCC8C3FA80200204B4559312B
:100BA0003A206F7574707574204F46460D0A000028
:100BB0004B4559313A206F7574707574204F4E2C27
:100BC000206175746F206D6F6465206279205672A4
:100BD00065662F56696E2028567265663D252E3350
:100BE00066562056696E3D252E336656290D0A003D
:100BF0004B45593420707265737365640D0A0000AB
:100C000000000020DC76002010B5846AE16D11F050
:100C1000500F06D0E16DC90630D5204601F0E1FF46
:100C200010BDE06D40F40070E065206801680907C0
:100C300012D50AF003FDE8B12068C068800419D419
:100C4000E06D20F48070E065E06DC00412D4E06DCA
:100C500040F00100E0650DE0C06880070AD4E06D57
:100C600020F48070E065E06DC00403D4E06D40F0D6
:100C70000100E065204601F0ADFF10BD616D496BDC
:100C8000BDE81040084710B5806AC16D41F04001D1
:100C9000C165016E41F00401016601F0A2FF10BDC3
:100CA00010B5806A01F09CFF10BD000070B50446CD
:100CB00020688168C1F340050AF0B4FC78B375BBC5
:100CC0002068816801F00D01012909D0E06D40F034
:100CD0001000E065206E40F001002066012070BD2C
:100CE0008168124A1140891C8160216803200860D4
:100CF00003F036F9054613E003F032F9401B0228F1
:100D00000ED920688068C0070AD0E06D40F010005E
:100D1000E065206E40F001002066012070BD03E018
:100D200020688068C007E7D10020F7E7C0FFFF7F99
:100D3000F8B504460020009020680AF073FC0028F3
:100D400059D1206881682D4A114209D0E06D40F0E8
:100D50001000E065206E40F0010020660120F8BD23
:100D60008168264E7F3E3140491C81602068B0F189
:100D7000A04F02D02249884201D1224800E02248F7
:100D8000806800F0E070000210D52048204900681B
:100D9000B0FBF1F0401C00EB40008000009002E04E
:100DA0000098401E009000980028F9D103F0D8F870
:100DB00005461BE00AF036FC20B920688168314006
:100DC000491C816003F0CCF8401B02280ED9206832
:100DD0000068C043C00709D0E06D40F01000E06536
:100DE000206E40F0010020660120F8BD20680168F7
:100DF000C943C907DED10020F8BD00003F000080D4
:100E00000001005000030050000700504C0100207A
:100E1000400D030010B51448124981671349C1679A
:100E2000134804F073FE134804F070FE124804F0F7
:100E30006DFE124804F06AFE7F21114801F0B2F8FD
:100E40007F21104801F0AEF87F210F4801F0AAF889
:100E50007F210E4801F0A6F8BDE810407F210C4824
:100E600001F0A0B8170A00085C010020F308000890
:100E700004740020407400207C740020B8740020AA
:100E8000586E0020C46E0020306F00209C6F002040
:100E9000087000201248012200F8702C002120F870
:100EA0006E1C104B40F86C3C0F4B40F8683C0F4BED
:100EB00040F8803C0E4B40F87C3C0E4B03620277BE
:100EC00041770D490164042101800C4981600C497E
:100ED00041610C49C1600C4901610C498161704755
:100EE0006402002001DF0008A1080008990800083A
:100EF0008508000899DD000815DD0008A5DE00085A
:100F000029DD000861DE00082DDE000879080008F0
:100F10002DE9FF41FFF77EFFFFF7BCFF304CD4F80F
:100F2000C8008047B4F8C0102EA00CF0C9FEA0681D
:100F30008047314806F0DAFE304806F0D7FE3048E8
:100F400006F0D4FE2F4806F0D1FE00212E4808F00E
:100F5000D1F800212D4808F0CDF83C212C4807F0AD
:100F600069FC00F05FF900F0A9FDDFF8A880D0B9B6
:100F7000D8F80C00FFF7D4F904460D46D8F808005D
:100F8000FFF7CEF906460F46D8F80400FFF7C8F978
:100F900041EC100B20A053EC102BCDE90067CDE9FC
:100FA00002450CF08DFE4FF4FA7002F0C5FDD8F842
:100FB0003C00FFF7B5F9044609480D46803890ED2E
:100FC000190A10EE100AFFF7ABF941EC100B1EA046
:100FD00053EC102BCDE900450CF072FEBDE8FF810B
:100FE000DC010020535049466C6173684944203D40
:100FF000202523580D0A00000C7800205878002086
:10100000A4780020F078002028770020C077002006
:10101000DC760020A80200205B4346475D20557324
:10102000696E672064656661756C74733A204B70F5
:101030003D252E3166204B693D252E3166204B64BF
:101040003D252E33660D0A004354524C20617574C1
:101050006F2D73746172742064697361626C65646E
:1010600020666F72207361666574793A2056696EE6
:101070003D252E32665620567265663D252E336616
:10108000560D0A00FEE700000B48416C806C0029F9
:1010900000D1012147F22F52914200D9114600B9E7
:1010A0000120904200D91046044A1268C2F89C12EE
:1010B000C2F81C0370470000A802002054720020F0
:1010C0002DE9F84F0C4601263E4D77024FF4407A49
:1010D0004FF480784FF4406101281AD0022835D0AF
:1010E0004FF47066032853D03146374803F07AFC3A
:1010F000002423463A4641462846009400F04BFB24
:101100000023802240212846009400F044FBBDE8E3
:10111000F88F2D4803F066FC0023802240212846EA
:10112000009600F038FB03233A464146284600F07B
:1011300019FB2CB15146BDE8F84F234803F014BC0D
:101140005146BDE8F84F204803F04CBC89461E4884
:1011500003F048FC51461C4803F044FC00233A4687
:1011600041462846009600F016FB0D2380224021C0
:10117000284600F0F7FA2CB14946BDE8F84F12486E
:1011800003F0F2BB4946BDE8F84F0F4803F02ABC14
:1011900003233A464146284600F0E4FA0D23802214
:1011A0004021284600F0DEFA2CB13146BDE8F84F68
:1011B000054803F0D9BB3146BDE8F84F024803F0BB
:1011C00011BC00000008004854720020124803219E
:1011D0008278012A12D0114A92ED190ADFED100A25
:1011E00060EE200A90ED0F1A71EE601AF4EEC01A4C
:1011F000F1EE10FA04DD02210170704701707047B2
:1012000071EE200AF4EEC00AF1EE10FA02D20121CA
:101210000170704701707047A80200205C01002037
:10122000CDCC4C3E00B51D499FED1B0A81ED010A56
:101230009FED1B0A81ED020A9FED1A0A81ED030A58
:101240009FED190A81ED040A9FED180A81ED0C0A41
:101250009FED170A81ED0D0A002281F83820081D44
:101260000BF03AF99FED130A81ED0F0AF1EE040A33
:10127000C1ED100A81ED050A0A704A708A7040F2C9
:10128000DC504864886481F84C200B48027042703E
:101290008270C280C27000BD00006144A8020020BC
:1012A0000000C843000000006F12833A000048436A
:1012B00000D0E8463333534004000020012805D015
:1012C000022805D0032805D003A0704703A070476B
:1012D00004A0704705A070474F4646004255434B57
:1012E00000000000424F4F535400000042420000F3
:1012F0002DE9F04F2DED048B93B0F84C94F84C0091
:10130000002836D094F83800002832D094ED100A26
:10131000DFF8CC83B0EE008A002620EE081AD8ED64
:101320001C0AF04FF4EEC10AF1EE10FA26DD38790E
:10133000401CC0B23871082821D300F063FB94ED43
:10134000100A20EE080A10EE100AFEF7E9FF98EDE9
:101350001C0A04460D4610EE100AFEF7E1FF41ECB0
:10136000100BE1A053EC102BCDE900450CF0A8FCCC
:101370003E7113B0BDEC048BBDE8F08F3E7198ED6B
:101380001C1AD648B6EE009AB4EEC01AD0ED0F0A79
:10139000F1EE10FA13DD98ED1C1A31EE400A20EE42
:1013A000090A30EEC00A84ED050AB5EEC00AF1EE76
:1013B00010FA06D29FEDD70A84ED050A01E0C4EDCC
:1013C000050A94ED050ADFEDD48AD7ED020A30EE66
:1013D000A81AB4EEC01AF1EE10FA02D287ED021A82
:1013E0000DE0B0EE681A70EEC10AF4EEC00AF1EE3C
:1013F00010FA02DDC7ED020A01E087ED020A97ED5F
:10140000020A84ED050AFFF7E1FE20783978884268
:101410000BD04FF47061C14803F0E4FA0220B870B9
:101420000520787020783870A3E7797811B1491ECB
:1014300079709EE7B97819B10121FFF741FEBE70BE
:10144000207802280ED1F87860B1401EF870FFF7BE
:101450001BFE207813B00121BDEC048BBDE8F04FDA
:10146000FFF72EBE98ED1B0A201D0AF0C3FFBCEE4D
:10147000C00A47F2305510EE100AA5EB000C10EE32
:10148000101A691A2278A6489FEDA62ADFF89892CA
:10149000DFEDA61AB7EE001ADFEDA59A022A34D1C5
:1014A000D8ED1B0A94ED0F0ADFEDA22A60EE222A86
:1014B000F4EEE20AF1EE10FA27D2D8ED192AC2EEC4
:1014C000800A31EE600A10EE103A834201DAB0EE83
:1014D000420A10EE103A4B4501DDB0EE610ADFED35
:1014E000960A30EE208A18EE103AB3F17C5F01DDE7
:1014F000B0EE498A31EE480A20EE290ABCEEC00A55
:1015000010EE103A994200D2194698ED190AD4ED1E
:101510000F0A70EE202A80EEA20AA378012B28D0B1
:1015200098ED1B2A70EEC20A9FED842A00EE820A13
:1015300010EE100A484501DAB0EE610A10EE100A0A
:101540007F4B984201DD9FED7F0A31EE400A20EE8D
:10155000290ABCEEC00A0120012A18D0022A1AD09A
:10156000032A1BD013B0BDEC048BBDE8F04F00F094
:1015700049BA10EE103A834201DAB0EE420A10EE98
:10158000100A714B9842E0DD9FED700ADDE7C4F868
:1015900044C0A06408E06064A16405E0F0EE400A85
:1015A000C4ED110A84ED120A606C4FF0C80C47F2CA
:1015B0002F52C82803D2012801D0C4F844C0616C5E
:1015C00047F26843994204D9914202D0012900D0E0
:1015D0006364A06CC82803D2012801D0C4F848C0B5
:1015E000A06C984204D9904202D0012800D0A36494
:1015F000FFF74AFD20780121FFF762FD2078129065
:101600003870F888401C80B2F880C828FFF40CAF0E
:1016100098ED198A68EE288A3048406C281A00EE46
:10162000100AB8EE400AC0EE290A9FED490A20EEE2
:10163000809A2A48806C281A00EE900AF8EE600A18
:1016400080EEA91A21EE000AFE8010EE100AFEF7C5
:1016500067FE04460D4619EE100AFEF761FE0646C7
:101660000F4618EE900AFEF75BFE82461B488B463B
:10167000C06BFEF755FECDE9100198ED1B0A10EE88
:10168000100AFEF74DFECDE90E0118EE100AFEF726
:1016900047FE804689461298FFF710FE01460F4824
:1016A0000E4ACDE90A67CDE90C45806C526CCDE954
:1016B0000820CDE906ABDDE91023CDE90423DDE9FF
:1016C0000E230648CDE90089CDE9022340780128A0
:1016D00044D020A220480CF0F3FA4AE6A8020020E9
:1016E0005C010020040000205B4F43505D20496FE7
:1016F00075743D252E326641203E206C696D6974FB
:101700003D252E3266412C2053485554444F574EA8
:101710000D0A000000000000CDCC4C3E54720020A9
:10172000CDCCCC3DCDCCCC3D6666E63E6666E63E95
:101730000060EA46CDCC4C3FCDCC4C3D0AD7233C93
:10174000CDCC0C3FCDCC0C3F6666663F6666663FEF
:101750000000C84244434D00208E050800A2B9E7AE
:1017600043434D00F0B585B007460C4616461D466E
:1017700014216846FEF7C9FD34430094022101910B
:10178000002102910321039104956946384602F035
:101790001FFA05B0F0BD2DE9F04186B00746DDF82F
:1017A00030800D4614461E46142101A8FEF7ADFDFB
:1017B00045EA0401019101200290002003900320DA
:1017C000049001A9384602F003FA32462946384609
:1017D00002F090FB42462146384602F08BFB06B0F1
:1017E000BDE8F081024880ED0F0A80ED050A7047E0
:1017F000A80200200149887070470000A80200205C
:101800002DE9FF415D4F97F84C00002859D1381D54
:101810000AF062FEFFF7DAFC594E96ED190A10EE57
:10182000100AFEF77DFD04460D46F86BFEF778FDC5
:1018300041EC100B3878022845D0032845D051A040
:101840007978012943D051A1CDE9021053EC102B36
:10185000CDE900454EA00CF033FA9FED5A0A87ED12
:101860000A0A594D3878287000216970A97001243E
:1018700001282ED055499FED563A564ADFED562A9B
:10188000DFED561AB7EE001A022825D0032841D002
:101890007C64BC643C70FFF7F7FB4FF4C201504816
:1018A00002F03AFF38780021FFF70AFCAC700520FF
:1018B0006870387802285ED00020E87007F8384F4A
:1018C0003C75BDE8FF8147A0BAE748A0B8E748A14A
:1018D000BAE77C64BC64DEE7D6ED190A97ED0F2AFF
:1018E00080EE820A31EE400A10EE100A884201DAD8
:1018F000B0EE430A10EE100A904201DDB0EE620A2B
:101900007C6431EE400A20EE210ABCEEC00A87ED6D
:10191000120AC0E796ED190AD7ED0F0A30EE202A19
:1019200080EE820AB878012817D010EE100A904293
:1019300001DAB0EE620A10EE100A2E49884201DD8B
:101940009FED2D0A31EE400A20EE210ABCEEC00ABE
:1019500087ED110A87ED120A9DE710EE100A884202
:1019600001DAB0EE430A10EE100A24498842E9DD9C
:101970009FED230AE6E728209FE70000A802002049
:101980005C0100204255434B0000000044434D00E1
:101990005B4354524C5F53544152545D2056726520
:1019A000663D252E3366562056696E3D252E3366DC
:1019B00056204F75743D2573202D3E2025730D0A4A
:1019C000000000000000000004000020CDCCCC3D51
:1019D000CDCCCC3D6666E63E6666E63E0060EA46F5
:1019E00054720020424F4F53540000004242000006
:1019F00043434D00CDCC0C3FCDCC0C3F6666663FDB
:101A00006666663F70B51B4D002495F84C000028B3
:101A10002AD085F838409FED180A85ED050A281D63
:101A20000AF05AFD6C6447F22F50A864FFF72CFBB4
:101A30004FF44071114802F0D5FF4FF440610F4858
:101A400002F0D0FF4FF4C2010C4802F0A3FE0021C7
:101A50000846FFF735FB2C7085F84C4008480470A9
:101A600044708470C47070BD00210846FFF728FBE5
:101A70002C7070BDA80200200000000054720020ED
:101A80000400002070B54FF0FF3200240A4E0EE033
:101A9000035D82EA03620023002A01DA354600E092
:101AA000002585EA42025B1C082BF5D3641C8C429E
:101AB000EED3D04370BD0000B71DC1042DE9F04F37
:101AC00097B00BAD002420460CF046F82855641C56
:101AD000302CF8D34F480B99814206D04EA00CF021
:101AE000EFF8002017B0BDE8F08F28210DA8FFF710
:101AF000C9FF02460C98904205D051A00C990CF0F9
:101B0000DFF80020EEE7DFF864A19DED0D0A8AED15
:101B1000010A9DED0E0A8AED020A9DED0F0A8AED7B
:101B2000030A9DED100AFFF75DFE9DED110A8AED97
:101B3000100A12984E4A00F001011170139864289F
:101B400001D8139800E06420DFF828B1C0B28BF808
:101B50000000494A11B1106A80470BE008B1012129
:101B600000E00021117600EB800040005083508B94
:101B7000D1698847159800F001003BF0E1F916980B
:101B800000F001003BF028FA3AF026FF08B10120EE
:101B900000E000208AF801001498012826D00020D7
:101BA0008AF8020000208AF80000DAF83C00FEF70C
:101BB000B7FB04460D46DAF80C00FEF7B1FB06460B
:101BC0000F46DAF80800FEF7ABFB80468946DAF8E4
:101BD0000400FEF7A5FB41EC100B2548DDE91421BC
:101BE0009BF80030007818B124A002E00120D7E76C
:101BF00024A0CDE90089CDE90267CDE90445CDE90E
:101C000007320690099153EC102B1F480CF058F83E
:101C1000012067E7040000BB5B4346475D204E6F31
:101C20002076616C696420636F6E66696720286D39
:101C3000616769633D2530386C58290D0A00000042
:101C40005B4346475D20435243206661696C3A20FE
:101C500073746F7265643D2530386C582063616C15
:101C6000633D2530386C580D0A000000A8020020A2
:101C70005100002052000020DC0100204155544F4B
:101C8000000000004D414E00808D05082DE9F04F09
:101C900097B0FF2230210BA8FEF730FBDFF8DCA065
:101CA0009AED010A8DED0D0A9AED020A8DED0E0AEC
:101CB0009AED030A8DED0F0A9AED0F0A8DED100AC9
:101CC0009AED100A8DED110A2D4800781290DFF878
:101CD000B4B09BF8000013909AF80200012837D0A6
:101CE000002014903AF072FE15903AF075FE1690AE
:101CF00028210DA8FFF7C6FE0C9023480B9000206A
:101D00000BF002FF30220BA9002016F051F8DAF890
:101D10003C00FEF705FB04460D46DAF80C00FEF722
:101D2000FFFA06460F46DAF80800FEF7F9FA804691
:101D30008946DAF80400FEF7F3FA41EC100B10487C
:101D4000DDE914219BF80030007818B10FA002E003
:101D50000120C6E70FA0CDE90089CDE90267CDE9F2
:101D60000445CDE907320690099153EC102B0A483F
:101D70000BF0A6FF17B0BDE8F08F0000A80200200E
:101D80005100002052000020040000BB4155544F78
:101D9000000000004D414E00D08D050810B5114CDB
:101DA0000122D103204602F0A5F80122910320462A
:101DB00002F0A0F80C4C00220421204602F09AF810
:101DC000142001F0B9FE01220421204602F092F80D
:101DD000142001F0B1FE0021044807F08BF9002027
:101DE00010BD000000040048000C0048747700207B
:101DF00001B5084801F0ADFC0128FAD1064804F00D
:101E000030FF0128FAD1642301226946024805F017
:101E1000CBF908BDBC750020F474002070B50446F1
:101E20000D46084801F095FC0128FAD1064804F057
:101E300018FF0128FAD12A462146BDE87040024821
:101E400005F022BCBC750020F4740020014801F0AC
:101E500083BC0000C47A0020014801F07DBC000072
:101E60001C760020014801F077BC00007C76002041
:101E7000014801F071BC0000BC750020014801F070
:101E80006BBC00003C790020014801F065BC0000FB
:101E9000A4730020014801F05FBC000074700020B2
:101EA000014801F059BC0000D4700020014801F045
:101EB00053BC000034710020014801F04DBC00000B
:101EC00094710020014801F047BC0000F47100202B
:101ED0000D4902688A4201D20C4901E00B492031C8
:101EE000D2B2083A1423B2FBF3F2436C23F003039B
:101EF0001944816405498031C16402F01F02012147
:101F0000914001657047000008040240000802404B
:101F10000179074A491E02EB81024265044A4032B8
:101F2000826501F01F0201219140C16570470000E8
:101F30000009024030B5D0E913546C60446D002CA8
:101F400002D0D0E916546C6090F8444004F01F05AC
:101F50000124AC40056C6C60046863608368102BDE
:101F600004D0036899600068C26030BD03689A605D
:101F70000068C16030BD70474FF4806001F01CBE46
:101F8000042001F019BE082001F016BE10B5402053
:101F900001F012FEBDE81040802001F00DBE72B6C7
:101FA000FEE70000F8B504460E46002500952068BF
:101FB000B0F1A04F0FD02F4988420CD02E49884253
:101FC00009D02E49884206D02D49884203D0842169
:101FD0002CA010F0C1FD7F2E06D03948864203D0D8
:101FE000852128A010F0B8FD94F85800012810D0E1
:101FF000012084F858002046FEF758FE03461800DA
:1020000009D0E06D40F01000E06584F858501846A3
:10201000F8BD0220F8BDE06D20F4885040F00200C9
:10202000E06520688168274A114006F0804211432C
:1020300041F000418160244920680FE0009A521C61
:102040000092009A8A4209D3E06D20F0020040F02D
:102050001000E06584F858500120F8BD8268D20F66
:10206000002AEBD1E06D20F0020040F00100E065B5
:10207000CBE70000000100500004005000050050B4
:10208000000600502E2E2F447269766572732F530E
:10209000544D3332473478785F48414C5F4472691D
:1020A0007665722F5372632F73746D333267347891
:1020B000785F68616C5F6164635F65782E630000C0
:1020C00000007F40C0FFFF3F02DE04002DE9F04F1B
:1020D0009DB004460D464FF0000920684FF0A04A1D
:1020E000DFF8EC81504506D0404504D040F64C0165
:1020F00078A010F031FD286890B1012810D0022896
:102100000ED003280CD005280AD0062808D00728AE
:1021100006D0092804D040F64D016EA010F01CFD39
:102120002868002834D0686850B1B0F5004F07D057
:10213000B0F5404F04D04FF4056166A010F00CFDDF
:10214000A86828B3B0F5807F22D0B0F5007F1FD0FB
:10215000B0F5407F1CD0B0F5806F19D0B0F5A06FFE
:1021600016D0B0F5C06F13D0B0F5E06F10D0B0F559
:10217000006F0DD0B0F5106F0AD0B0F5206F07D00A
:10218000B0F5306F04D040F6510152A010F0E4FCDD
:1021900094F8580001280DD0012084F85800002739
:1021A00019971A972068DFF868B15A4E504505D143
:1021B000029609E002201DB0BDE8F08F404502D133
:1021C000CDF808B000E00297029840B1029809F0FB
:1021D00031FA0190206809F02DFA40B109E0E06D74
:1021E00040F02000E06584F858700120E3E7019892
:1021F00048B1E06D40F02000E0654FF0010984F83F
:1022000058704846D7E72068504501D0B04201D108
:10221000414800E04148424B296840F61F7281B3B3
:10222000816894F838C021F4604141EA4C31D5F816
:1022300004C041EA0C0181602168514501D0B142DE
:1022400008D1DAF80810C1F30001B368C3F3000342
:1022500019430CE0D8F80810C1F30001DBF808605E
:10226000C6F3000631439B68C3F3000319430029FA
:10227000C5D1AB68296819438368934319438160CA
:10228000BDE7FFE7816821F4604181602168514525
:1022900001D0B14208D1DAF80810C1F30001B368E7
:1022A000C3F3000319430CE0D8F80810C1F3000190
:1022B000DBF80850C5F3000529439B68C3F300030E
:1022C000194300299BD181689143816097E7000001
:1022D000000400502E2E2F447269766572732F53BE
:1022E000544D3332473478785F48414C5F447269CB
:1022F0007665722F5372632F73746D33326734783F
:10230000785F68616C5F6164635F65782E6300006D
:10231000000500500001005000030050000700506D
:10232000000600502DE9FE4F04460D4600200290A5
:10233000019020684FF0A04BDFF8F483DFF8F493AE
:10234000FD4E58450DD0B0420BD0FC49884208D014
:10235000404506D0484504D040F6D221F8A010F000
:10236000FBFB6868062831D00C282FD012282DD00E
:1023700018282BD0B0F5807F28D0B0F5837F25D0EA
:10238000B0F5867F22D0B0F5897F1FD0B0F58C7F65
:102390001CD0B0F5007F19D0A0F50071063915D01A
:1023A000B0F5037F12D0A0F5007112390ED0B0F550
:1023B000067F0BD0B0F5407F08D0A0F540710639FC
:1023C00004D040F6D321DEA010F0C6FBA868A8B167
:1023D000B0F1004F12D0012810D002280ED00328EF
:1023E0000CD004280AD0052808D0062806D00728D3
:1023F00004D040F6D421D2A010F0AEFBE868DE4F46
:102400007F2806D0B84204D040F6D521CCA010F0E9
:10241000A3FB286904280BD050B1012808D002285A
:1024200006D0032804D040F6D621C5A010F094FBB6
:102430002068C06800F01800810840F6FF70C840AE
:102440006969884204D240F6D721BDA010F084FB10
:102450002869042808D094F84000012804D140F6E7
:10246000DB21B7A010F078FBDFF80CE3C349E86884
:10247000DFF80CA3C34FC44AC44B4FEA410C70456C
:102480007ED0286801287CD08842FCD06045FAD0F4
:10249000A0F1C9514039F6D0BD498842F3D0BD49B9
:1024A0008842F0D0BC498842EDD0BC498842EAD08D
:1024B000BB498842E7D0BB498842E4D0BA49884248
:1024C000E1D0BA498842DED02168594513D1904203
:1024D00057D0984255D0DFF8D8C2604551D0DFF8C8
:1024E000D4C260454DD0DFF8D0C2604549D05045D8
:1024F00047D0B84245D0B14217D1904241D098421E
:102500003FD0DFF8ACC260453BD0DFF8B0C26045D9
:1025100037D0DFF8ACC2604533D0DFF8A8C26045E1
:102520002FD0DFF8A4C260452BD0DFF810E2DFF82F
:102530009CC2714511D1904223D0984221D0DFF83E
:1025400070E270451DD0DFF888E2704519D0604513
:1025500017D0504515D0B84213D0414513D1904201
:102560000FD098420DD0924A90420AD0934A90429E
:1025700007D0604505D0974A904202D0B84201E0AA
:102580001BE019E018D0494511D19349884213D076
:102590009249884210D0924988427ED08749884229
:1025A0007BD0604579D0504577D0B84275D04FF494
:1025B0002E6163A010F0D0FA6FE0286888426CD0DA
:1025C000A0F1C951403968D07149884265D071493C
:1025D000884262D0704988425FD0704988425CD09E
:1025E0006F49884259D07049884256D02168594570
:1025F00009D1604551D090424FD098424DD0DFF87C
:10260000B0E1704549D0B14211D1604545D090420A
:1026100043D0984241D0DFF898E170453DD0DFF8D3
:1026200084E1704539D0DFF894E1704535D0DFF8AA
:102630000CE171450DD160452FD090422DD09842CC
:102640002BD0DFF86CE1704527D0DFF860E17045F2
:1026500023D0414511D160451FD090421DD09842F2
:102660001BD0534A904218D04E4A904215D0534A3C
:10267000904212D04D4A90420FD0494508D1494965
:1026800088420AD04D49884207D04849884204D040
:1026900040F6E4212AA010F05FFA94F858000128CF
:1026A00012D0012084F85800206808F0BFFF68B1FC
:1026B000E06D40F02000E06501200290002084F8E9
:1026C00058000298BDE8FE8F0220FBE7A988206829
:1026D0002A6801F4407300EB9310036B01F01F01B3
:1026E0004FF01F0C0CFA01FCC2F3846223EA0C03C6
:1026F0008A4013430363206808F098FF0090206825
:1027000008F08CFF009901436CD1AA68B2F1004F28
:1027100069D02968206808F099FF2068416921F094
:102720000041416120686A69C168C1F3C1015BE091
:102730000005005000060050000100500004005049
:102740002E2E2F447269766572732F53544D333297
:10275000473478785F48414C5F4472697665722FE0
:102760005372632F73746D3332673478785F6861A6
:102770006C5F6164632E630000007F4002003004E0
:10278000000052C7000084CB0800900C1000C0105D
:102790008000501D000180210002B0250004002AA5
:1027A0000008302E001060320040C03A0080F03E39
:1027B0002000F014002090B6000021C300209036C5
:1027C000000029C30000524700008CCB00002143C9
:1027D000002098B600005AC70800908C1000C090E6
:1027E0002000F094BEE040E049008A4029690429B5
:1027F00049D02B6800EB8100016EDFF8B0C303F015
:10280000F84301EA0C011343194341F0004101660A
:10281000A86940B1B0F1807F05D040F61C31AFF21D
:10282000E00010F099F9287F38B1012805D040F672
:102830001D31AFF2F40010F08FF920682A69A96900
:1028400000EB8200026E22F080720A430266297F4A
:1028500020682A69012913D0002100EB8200026E52
:1028600022F000720A4302667CE029680022206898
:1028700008F0ECFE2068416941F00041416151E7F8
:102880004FF00071E9E7002108F0C2FE40036FD06D
:102890000021206808F0BCFE90FAA0F0B0FA80F1A8
:1028A000286842036BD090FAA0F0B0FA80F0814221
:1028B00004D100221146206808F0D7FE01212068CB
:1028C00008F0A6FE40035DD00121206808F0A0FEBC
:1028D00090FAA0F0B0FA80F12868420359D090FA3B
:1028E000A0F0B0FA80F0814204D1002201212068DA
:1028F00008F0BBFE0221206808F08AFE40034BD09E
:102900000221206808F084FE90FAA0F0B0FA80F16D
:102910002868420347D090FAA0F0B0FA80F08142D4
:1029200004D100220221206808F09FFE03212068C4
:1029300008F06EFE400339D00321206808F068FEDD
:1029400090FAA0F0B0FA80F12868420335D090FAEE
:10295000A0F0B0FA80F0814204D100220321206867
:1029600008F083FE206808F05DFE48B3B6E0FFE79C
:102970000021206808F04CFEC0F3846190E7C0F3AA
:10298000846094E70121206808F042FEC0F384616E
:10299000A2E7C0F38460A6E70221206808F038FEB1
:1029A000C0F38461B4E7C0F38460B8E70321206812
:1029B00008F02EFEC0F38461C6E7C0F38460CAE766
:1029C00020682A7B296850F8B03FC1F3120C23EA33
:1029D0000C0302F0180C764A22FA0CF20A40134358
:1029E00003607448E968814278D1286841031BD0AC
:1029F00090FAA0F1B1FA81F1491C01F01F010929F7
:102A000033D84103002912D090FAA0F1B1FA81F134
:102A100001F1010101F01F014FF0010202FA01F280
:102A200008D1C0F3846109E0C0F38461E4E7C0F336
:102A30008461EDE790FAA0F1B1FA81F101F10101B1
:102A400001F01F0142EA816102D1C0F3846003E01A
:102A500090FAA0F0B0FA80F000F1010000F01F0041
:102A600000EB400041EA005134E04FEA40310029D8
:102A70000FD090FAA0F1B1FA81F101F1010101F05A
:102A80001F014FF0010202FA01F205D1C0F3846187
:102A900006E0C0F38461F0E790FAA0F1B1FA81F1A9
:102AA00001F1010101F01F0142EA816102D1C0F38D
:102AB000846003E090FAA0F0B0FA80F000F1010029
:102AC00000F01F00A0F10A0000EB400041EA0050B6
:102AD00040F00071AA68206808F0B8FD36482A68FE
:102AE00002423FF4EBAD2068344B354D584501D0E0
:102AF000B04201D1194600E02946896801F0E07131
:102B0000DFF8C0C0624503D0DFF8BCC0624525D104
:102B10005FEA012C22D4584502D048457FF4CEAD5F
:102B2000584502D0B04200D02B4641F400009968CD
:102B300021F0E07101439960244825490068B0FB09
:102B4000F1F0401C00EB40008000019002E0019891
:102B5000401E019001980028F9D1AFE5524513D1EC
:102B60005FEAC11C10D4B04201D14045F5D05845B0
:102B700002D0B04200D02B4641F08070996821F01D
:102B8000E0710143996099E5BA42E6D14A02E4D482
:102B9000B042E2D0584500D02B4641F480009968FD
:102BA00021F0E0710143996088E5000000F0FF0327
:102BB000FFFF070000007F40000008800003005076
:102BC00000070050000021C31000C0904C010020FD
:102BD000400D03000149C96F084700005C01002057
:102BE000704770472DE9F84F0446002600200090FA
:102BF000002C7CD020684FF0A04AFB4FDFF8EC831C
:102C0000DFF8EC93FB4D50450CD0A8420AD0B842F7
:102C100008D0404506D0484504D040F29B11F6A0AC
:102C20000FF09AFF6068B0F5803F2CD0B0F5003F00
:102C300029D0B0F5403F26D028B3B0F5802F22D060
:102C4000B0F5002F1FD0B0F5402F1CD0B0F5801F7D
:102C500019D0B0F5A01F16D0B0F5C01F13D0B0F535
:102C6000E01F10D0B0F5001F0DD0B0F5101F0AD036
:102C7000B0F5201F07D0B0F5301F04D04FF4CE714F
:102C8000DDA00FF069FFA06850B1082808D0102817
:102C900006D0182804D040F29D11D7A00FF05CFF99
:102CA000E06838B1B0F5004F04D04FF4CF71D2A036
:102CB0000FF052FF206944F20901884204D940F222
:102CC0009F11CDA00FF048FF606930B1012804D0FA
:102CD0004FF4D071C8A00FF03FFF607F30B10128E2
:102CE00004D040F2A111C4A00FF036FF00E0EFE0E5
:102CF000206B4FF4806B60B158450AD0B0F5006F7F
:102D000007D0B0F5406F04D04FF4D171BAA00FF0E6
:102D100023FFE06AB0F5A46F7ED0B0F5A86F7FD036
:102D2000B0F5886F7CD0B0F5AC6F79D0B0F5906F0E
:102D300076D0B0F5B06F73D0B0F5B46F70D0B0F599
:102D4000F86F6DD0B0F59C6F6AD0B0F5A06F67D00A
:102D5000B0F5B86F64D0B0F5C06F61D0B0F5C46F96
:102D60005ED0B0F5C86F5BD0B0F5D46F58D0B0F579
:102D7000D86F55D0B0F5DC6F52D0B0F5E06F4FD0C2
:102D8000B0F5E46F4CD0B0F5E86F49D0B0F5EC6F1A
:102D900046D0B0F5F06F43D0B0F5F46F40D0216865
:102DA0004FF484624FF48C6E4FF4BC634FF4986C14
:102DB000514501D0A94212D1584531D090422FD06F
:102DC00070452DD098422BD0B0F5946F28D0B0F537
:102DD000CC6F25D0B0F5D06F22D0604520D0B9425D
:102DE00003D0414501D0494512D1984218D09042B4
:102DF00016D0584514D0604512D0704510D0B0F5AB
:102E0000CC6F0DD0B0F5D06F0AD0B0F5946F07D06D
:102E100010B140F2A31100E002E077A00FF09CFE99
:102E2000606B50B1B0F1806F07D0B0F1006F04D08B
:102E30004FF4D27170A00FF08FFE94F8380030B1CB
:102E4000012804D040F2A5116BA00FF085FEA06907
:102E5000042806D0082804D04FF4D37166A00FF0E0
:102E60007BFEE06B38B1B0F5805F04D040F2A71173
:102E700061A00FF071FE207F30B1012804D04FF423
:102E8000D4715DA00FF068FE94F8400030B10128C5
:102E900004D040F2A91158A00FF05EFE606918B38B
:102EA000206A401E0F2804D940F2AD1152A00FF045
:102EB00053FE94F8240030B1012804D04FF4D771A8
:102EC0004DA00FF049FE94F82400012803D00BE038
:102ED0000120BDE8F88FA06A401E072804D94FF4EE
:102EE000D97145A00FF038FE94F82400012807D1CD
:102EF000607F012804D140F2B7113FA00FF02CFEF3
:102F0000E06D30B9204600F075F90020206684F8A5
:102F1000580020688168C1F3407119B18168444A42
:102F20001140816020688168C1F30071A1B9816896
:102F3000404A114041F0805181603F483F4900685C
:102F4000B0FBF1F0401C4000009002E00098401EF1
:102F5000009000980028F9D120688168C1F30071C1
:102F600041B9E16D41F01001E165216E41F00101CF
:102F70002166012608F05AFBE16DC90600D430B184
:102F8000E06D40F01000E06501263046A1E7E06DFD
:102F900020F4807040F00200E065206808F042FBF9
:102FA00008BB2068504501D0A84208D1DAF80810C3
:102FB000C1F30001AA68C2F3000211430CE0B96832
:102FC000C1F30001D8F80820C2F300021143D9F878
:102FD0000820C2F30002114329B9504501D0A8428C
:102FE00030D117482FE034E00004005000050050B5
:102FF00000060050000100502E2E2F4472697665A5
:1030000072732F53544D3332473478785F48414CB4
:103010005F4472697665722F5372632F73746D33D8
:1030200032673478785F68616C5F6164632E630037
:10303000C0FFFF5FC0FFFF7F4C010020400D030079
:103040000003005069486168826822F47C120A43D8
:103050008260E168E06B627F0843A16841EA423127
:10306000084394F8241040EA0140012903D1218D3E
:10307000491E40EA4140E16A29B101F47871226BAE
:10308000014342EA01002168CA68594B1A400243D1
:10309000CA6020680169626B21F0406111430161DF
:1030A000206808F0BBFA80BB207F94F838108003BA
:1030B00040EA41012068C26844F202039A430A438D
:1030C000C260206968B12068016941F48031016102
:1030D000206850F8C01F22696FF30D011143016091
:1030E0000AE02068016921F480310161206850F80C
:1030F000C01F6FF30D01016094F84000012813D048
:103100002068016921F0010101616069012863D033
:103110002068016B21F00F010163E06D20F00200D7
:1031200040F00100E06530E7606C98B1042811D0F0
:1031300008280FD00C280DD010280BD0142809D047
:10314000182807D01C2805D040F27621AFF258107D
:103150000FF002FDA06CB0B1202814D0402812D08E
:10316000602810D080280ED0A0280CD0C0280AD00B
:10317000E02808D0B0F5807F05D040F27721AFF28B
:1031800088100FF0E9FCE06C40B1B0F5007F05D08D
:103190004FF41E71AFF2A0100FF0DEFC206D01287D
:1031A00009D0A0F58061013905D040F27921AFF254
:1031B000B8100FF0D1FCD4E911100143D4E9130287
:1031C000104301432068026940F2FC739A431143A3
:1031D00041F00101016198E72068016B226A21F04A
:1031E0000F01521E1143016397E7000000070050D2
:1031F0000740F0FF2DE9F04F9BB00446142116A8BC
:10320000FDF783F8542101A8FDF77FF84FF4004241
:10321000206800269103AA4FAA4D4FF080084FF472
:1032200000794FF4006A4FF4405BB0F1A04F10D02A
:10323000A54B98427DD10192129101A802F058FD50
:1032400008B1FEF7ACFE3868401C3860012842D057
:1032500049E00192129101A802F04AFD08B1FEF77F
:103260009EFE3868401C3860012807D1E86C40F4A5
:103270000050E864E86C00F400500090E86C40F006
:103280000100E864E86C00F0010000900420169052
:1032900003201790189616A94FF0904000F098FC64
:1032A0008B4D8A48286005206860AE60EE60C5F8E6
:1032B0001080C5F81490C5F818A0EE61C5F820B0CC
:1032C000284600F0AFFA08B1FEF769FE6565AC620A
:1032D0001BB0BDE8F08FE86C40F40050E864E86C87
:1032E00000F400500090E86C40F00100E864E86CE5
:1032F00000F00100009040201690032017901896CF
:1033000016A94FF0904000F063FC7048704D1430E7
:103310006035286024206860AE60EE60C5F81080DB
:10332000C5F81490C5F818A0EE61C5F820B028467D
:1033300000E007E000F076FA08B1FEF730FE6565C0
:10334000AC62C5E7634B9901CA03984240D1019131
:10335000139201A802F0CCFC08B1FEF720FE7868B9
:10336000401C7860012807D1E86C40F48040E86494
:10337000E86C00F480400090E86C40F00200E864E3
:10338000E86C00F0020000900220169003201790D5
:10339000189616A9504800F01BFC4C484C4D28309C
:1033A000C035286025206860AE60EE60C5F81080EA
:1033B000C5F81490C5F818A0EE61C5F820B02846ED
:1033C00000F030FA08B1FEF7EAFD6565AC627FE710
:1033D000424B984240D10191139201A802F088FC1F
:1033E00008B1FEF7DCFD7868401C7860012807D141
:1033F000E86C40F48040E864E86C00F480400090A1
:10340000E86C40F00200E864E86C00F00200009014
:103410004FF48050169003201790189616A92E4846
:1034200000F0D6FB29482E4D3C30286026206860ED
:10343000AE60EE60C5F81080C5F81490C5F818A00D
:10344000EE61C5F820B0284600F0ECF908B1FEF7AF
:10345000A6FD6565AC623BE7224B9842B7D101916E
:10346000139201A802F044FC08B1FEF798FD7868B9
:10347000401C7860012807D1E86C40F48040E86483
:10348000E86C00F4804000901048154D50306035D5
:10349000286027206860AE60EE60C5F81080C5F82F
:1034A0001490C5F818A0EE61C5F820B0284600F0C9
:1034B000B9F908B1FEF773FD6565AC6208E7000075
:1034C00038010020001002400001005008040240B2
:1034D00074700020000400500004004800050050F3
:1034E00094710020000600502DE9F74F04468B46EA
:1034F00020684FF0A04A474E504501D0B04201D15C
:10350000454900E04549896801F01F05444FDFF84F
:103510001481DFF8149150450CD0B0420AD0B84263
:1035200008D0404506D0484504D040F2DB713FA0AA
:103530000FF012FB206808F079F810B10220BDE806
:10354000FE8F94F85800012807D0012084F8580015
:103550002068484503D1012002E00220EFE7002067
:10356000401E28424FF0000907D0052D05D0092D37
:1035700003D0012084F85890E1E72046FDF7D8FBFE
:1035800010B184F85890DAE7E06D40F601618843A5
:1035900040F48070E0652068B04201D1574602E0F7
:1035A000404500D00746874200D01DB9E06D20F4A9
:1035B0008010E065E06DC00404D5206E20F00600A8
:1035C000206601E0C4F86090616D2648C862616DB4
:1035D00025480863616D2548486321681C20086000
:1035E00084F858902068416841F0100141602068DB
:1035F000C16841F00101C1602168606D40315A46E7
:10360000029B00F021FA21688A68194B1A40121DAA
:103610008A6094E70001005000030050000700504A
:103620000004005000050050000600502E2E2F44CC
:103630007269766572732F53544D333247347878FC
:103640005F48414C5F4472697665722F5372632FF5
:1036500073746D3332673478785F68616C5F61646E
:10366000632E6300090C0008A10C0008870C0008F9
:10367000C0FFFF7F10B5002190F825200123022A0A
:1036800003D00421C163012122E00268146824F000
:103690000E041460826C146824F480741460026850
:1036A000146824F00104146090F84420046C02F0C3
:1036B0001F0203FA02F26260D0E913426260426DB7
:1036C00032B1146824F480741460D0E91642626048
:1036D0002430437000220270084610BD70B50024EB
:1036E00090F8251000230122022906D0042124305D
:1036F000816142700370012429E001680D6825F0A2
:103700000E050D6001680D6825F001050D60816CE6
:103710000D6825F480750D6090F84410154601F091
:103720001F018A40016C4A60D0E913215160416D4C
:1037300031B10A6822F480720A60D0E91621516022
:1037400080F8255080F82430816B01B188472046ED
:1037500070BD90F825007047F0B4016C0A680168EC
:103760000B6890F84440042604F01F0406FA04F5A0
:10377000154215D05D0713D50A68920603D40A686E
:1037800022F004020A6090F8441001F01F0106FACA
:1037900001F5016C4D60016B002941D0F0BC084778
:1037A0004FF0020C0CFA04F616424FF000074FF0EF
:1037B000010519D09E0717D50A68920605D40A6834
:1037C00022F00A020A6080F8255090F8441001F0B7
:1037D0001F010CFA01F6016C4E6080F82470C16A7A
:1037E00000291DD0F0BC08470826A640164217D075
:1037F0001A0715D50A6822F00E020A6090F84410E4
:10380000026C01F01F0105FA01F15160C56380F8F7
:10381000255080F82470416B002901D0F0BC084786
:10382000F0BC704770B50446002C7DD07649206806
:10383000764D88423DD074491431884239D072495E
:103840002831884235D070493C31884231D06E49A8
:10385000503188422DD06C496431884229D06A4960
:103860007831884225D068498C31884221D0A842DD
:103870001FD06649143188421BD0644928318842E0
:1038800017D062493C31884213D060495031884298
:103890000FD05E49643188420BD05C497831884250
:1038A00007D05A498C31884203D0A32158A00FF089
:1038B00053F9A0684FF4804638B1102805D0B042C3
:1038C00003D0A42152A00FF047F9E068402804D0AB
:1038D00018B1A5214EA00FF03FF92069802804D02F
:1038E00018B1A6214AA00FF037F9606948B1B0F5C8
:1038F000807F06D0B0F5007F03D0A72144A00FF051
:103900002BF9A06948B1B0F5806F06D0B0F5006F13
:1039100003D0A8213EA00FF01FF9E06938B120289C
:1039200005D0A9213AA000E026E00FF015F9206AA1
:1039300060B1B0F5805F09D0B0F5005F06D0B0F59A
:10394000405F03D0AA2132A00FF006F96068732807
:1039500003D9AC212EA00FF0FFF820681421A84253
:103960000CD2294A52420244B2FBF1F1890061644F
:103970002549083921640BE0012070BD234A5242D9
:103980000244B2FBF1F189006164204908392164E5
:10399000022184F82510016847F6F0729143D4E9BA
:1039A00002231A43D4E904352B431A43A3691A436B
:1039B000E3691A43236A1A430A4302602046FEF76A
:1039C00087FAA0680025B04200D16560A16C20791B
:1039D0000860D4E9131048606068401E032808D8C6
:1039E0002046FEF795FA606D0560D4E91610486030
:1039F00002E06565A565E5652434A5610120607078
:103A00002570002070BD000008000240080402403C
:103A10002E2E2F447269766572732F53544D3332B4
:103A2000473478785F48414C5F4472697665722FFD
:103A30005372632F73746D3332673478785F6861C3
:103A40006C5F646D612E63002DE9F04104460F4602
:103A500090461E4600252949701E884204D340F234
:103A6000AB1127A00FF078F894F8240001280DD0AE
:103A7000012084F8240094F825100020012907D0A3
:103A800084F8240002252846BDE8F0810220FBE7E7
:103A9000022184F82510E0632068016821F001010B
:103AA00001603346424639462046FEF743FA206B12
:103AB00028B12068016841F00E01016009E020682A
:103AC000016821F0040101602068016841F00A01E9
:103AD0000160A06C0168C90303D5016841F48071DD
:103AE0000160606D18B1016841F480710160206867
:103AF000016841F001010160C5E70000FFFF03001C
:103B00002E2E2F447269766572732F53544D3332C3
:103B1000473478785F48414C5F4472697665722F0C
:103B20005372632F73746D3332673478785F6861D2
:103B30006C5F646D612E630070B5044600F010FA8E
:103B40000546601C02D004484068044400F008FAAE
:103B5000401BA042FAD370BD4001002010B50446BE
:103B600000F0FEF901221349042C0DD0082C13D0CB
:103B7000402C18D0B4F5806F05D1CB68C31A782BD0
:103B800001D3C8608A7010BD8B69C31A502BFAD359
:103B9000886188600A7110BD0B69C31A502BFAD373
:103BA00008610A7010BD4B69C31A502BFAD34861E3
:103BB0004A7010BD1400002010B504490A68024282
:103BC00002D00860FFF7CAFF10BD000014040140D6
:103BD0002DE9F84F04460D460026DFF85882DFF83D
:103BE0005892B4F1904F13D0444511D04C450FD0AA
:103BF000924884420CD09248844209D09148844231
:103C000006D09148844203D0A92190A00EF0A4FFD1
:103C100028680104090C01D0000C03D0AA218BA054
:103C20000EF09AFF6868F8B101281DD011281BD04A
:103C3000022819D0122817D0B0F5881F14D0B0F57B
:103C4000041F11D0B0F5441F0ED0B0F5901F0BD05B
:103C5000B0F5081F08D0B0F5481F05D0032803D0E1
:103C6000AB217AA00EF078FF4FF0030ADBE04FF0B3
:103C7000010B0BFA06FB07EA0B07002F7DD0287912
:103C800000F00300012801D002281DD1E86848B1E6
:103C9000012807D0022805D0032803D0BB216BA040
:103CA0000EF05AFFA16870000AFA00F29143EA6828
:103CB00082400A43A260606820EA0B002979C1F3C0
:103CC0000011B140014361602879C043800712D0E0
:103CD000A86838B1012805D0022803D0CC215BA008
:103CE0000EF03AFFE16870000AFA00F29143AA6808
:103CF00082400A43E260287900F0030002282AD1BA
:103D0000B4F1904F13D0444511D04C450FD04B48DF
:103D100084420CD04A48844209D04A48844206D0A2
:103D20004948844203D0D92148A00EF015FF2869E4
:103D30000F2803D9DA2145A00EF00EFFF00804EB9E
:103D40008000026A7107C90E0F238B409A432B69CA
:103D50008B4013430362216870000AFA00F291431A
:103D60002A7902F0030282400A432260686810F454
:103D7000403F57D04448016E00E053E041F001015C
:103D80000166006E00F001000090404826F003013B
:103D90000A189368B007010F0F2088408343B4F1DD
:103DA000904F03D0444503D1012015E0002013E0DB
:103DB0004C4501D102200FE02048844201D103206C
:103DC0000AE01F48844201D1042005E01D488442D6
:103DD00001D1052000E006208840184390602C495E
:103DE0000868B8436A68D20200D538430860284999
:103DF000091D0868B8436A68920200D53843086014
:103E00002349091F0868B8436A68920300D53843FC
:103E100008601F4908390868B8436A68D20300D5AA
:103E200038430860761C2F6837FA06F07FF41FAF1E
:103E3000BDE8F88F0004004800080048000C004866
:103E40000010004800140048001800482E2E2F448F
:103E50007269766572732F53544D333247347878D4
:103E60005F48414C5F4472697665722F5372632FCD
:103E700073746D3332673478785F68616C5F677034
:103E8000696F2E6300000000001002400000014036
:103E90000804014070B505460C46002C04D14FF4CF
:103EA000BD7105A00EF058FE2869204201D0012006
:103EB00070BD002070BD00002E2E2F447269766503
:103EC00072732F53544D3332473478785F48414CE6
:103ED0005F4472697665722F5372632F73746D330A
:103EE00032673478785F68616C5F6770696F2E63E2
:103EF0000000000070B506460C461546002C04D1A3
:103F00004FF4CD7107A00EF027FE35B1012D04D07E
:103F100040F29B1103A00EF01FFE0DB1B46170BD05
:103F2000B46270BD2E2E2F447269766572732F5362
:103F3000544D3332473478785F48414C5F4472695E
:103F40007665722F5372632F73746D3332673478D2
:103F5000785F68616C5F6770696F2E6300000000B6
:103F600001488068704700004001002070B5044699
:103F70000D46681C0BD055B1042D08D0082D06D075
:103F80000C2D04D040F209311CA00EF0E5FD94F890
:103F9000DC00012821D0012184F8DC10022084F803
:103FA000DD00681C1BD02068D0F8CC2342F0020250
:103FB000C0F8CC232068D0F8CC2322F00C022A438E
:103FC000C0F8CC232068D0F8CC2342F00102C0F81E
:103FD000CC2384F8DD10002070BD022070BD206865
:103FE000D0F8CC2322F00202C0F8CC232068D0F80D
:103FF000CC2342F00102C0F8CC23EAE72E2E2F4456
:104000007269766572732F53544D33324734787822
:104010005F48414C5F4472697665722F5372632F1B
:1040200073746D3332673478785F68616C5F68727F
:1040300074696D2E6300000070B505460E46144687
:10404000002E0ED0012E0CD0022E0AD0032E08D046
:10405000042E06D0052E04D041F2C1514FA00EF01F
:104060007BFD2268CAB1B2F5806F16D0B2F5006F41
:1040700013D0B2F5406F10D0B2F5805F0DD0B2F51D
:10408000A05F0AD0B2F5C05F07D0B2F5E05F04D000
:1040900041F2C25141A00EF05FFDA06838B1B0F509
:1040A000007F04D041F2C3513CA00EF055FDE06802
:1040B00038B1B0F5004F04D041F2C45137A00EF032
:1040C0004BFD206938B1B0F5804F04D041F2C551A5
:1040D00032A00EF041FDA06938B1B0F1007F04D0EC
:1040E00041F2C6512DA00EF037FDE06938B1B0F1B4
:1040F000004F04D041F2C75128A00EF02DFD206AD8
:1041000038B1B0F1804F04D041F2C85123A00EF075
:1041100023FD95F8DD0002283BD095F8DC0001284E
:1041200039D0012305F8DC3F02206870208800F4B4
:10413000E051A088C0F308000843218901F4007110
:104140000143208A00F480400843A18901F4004122
:104150000143A08A6FF07E4202EA00400843A16951
:1041600001F000710143206A00F080400843E169DA
:1041700001F00042024355F8DC0CB82101EBC611F6
:104180004458154E3440144344506B70002028703E
:1041900070BD022070BD022070BD00002E2E2F4485
:1041A0007269766572732F53544D33324734787881
:1041B0005F48414C5F4472697665722F5372632F7A
:1041C00073746D3332673478785F68616C5F6872DE
:1041D00074696D2E630000000020003CF8B50446B1
:1041E000002C7CD0474E2068B04204D04FF40D71B3
:1041F00045A00EF0B1FC53496068084204D040F27B
:10420000352141A00EF0A8FC0220C03460770025C3
:1042100025626562A562E56225636563A56314F89E
:10422000B80CC03CC00737D0206968B1B0F5804FEA
:104230000AD0B0F5004F07D0B0F5404F04D040F29F
:104240006D2131A00EF088FC606950B1B0F5005FBF
:1042500007D0B0F5405F04D040F26E212AA00EF0E6
:104260007BFC2068B04208D13748016E41F0806184
:104270000166006E00F0806000902068016821F403
:104280004041228A02F440420A4322F44052A18A69
:1042900001F4405111430160204600F057F8207AA4
:1042A000800715D5E06850B1B0F5007F07D0B0F5B4
:1042B000407F04D040F2922113A00EF04DFC206804
:1042C000016821F44072A18901F440711143016039
:1042D000012084F8DD0084F8DC50002100E00FE0CC
:1042E000C1EBC10004EB80008561C56105624562D8
:1042F00085620563491CC9B20629EFD90020F8BDC3
:104300000120F8BD006801402E2E2F4472697665A9
:1043100072732F53544D3332473478785F48414C91
:104320005F4472697665722F5372632F73746D33B5
:1043300032673478785F68616C5F687274696D2E7B
:104340006300000080FFFCFF0010024008B5006819
:104350000649884208D10648016E41F08061016635
:10436000006E00F08060009008BD00000068014011
:1043700000100240F0B587B00446142102A8FBF7F4
:10438000C4FF14492068884221D11348C16C41F010
:104390000401C164C06C00F004000190C0200290D0
:1043A0000225039500260496032405940D2006900B
:1043B0000A4F02A93846FFF70BFC20020290039532
:1043C00004960594069402A93846FFF701FC07B04D
:1043D000F0BD0000006801400010024000080048E5
:1043E00070B505460C46FFF7BBFD064607E0601CAE
:1043F00005D0FFF7B5FD801BA0420CD85CB1286842
:10440000D0F88803C043C003F1D40120DC356870C4
:104410000020287070BD072085F8DD00032070BDE6
:1044200070B505460C461646062C0FD074B1012C0B
:104430000CD0022C0AD0032C08D0042C06D0052C5A
:1044400004D040F297311EA00EF086FBB16891B106
:10445000012910D002290ED003290CD004290AD03A
:10446000052908D0062906D0072904D04FF4667123
:1044700013A00EF071FBF068082807D030B11028A7
:1044800004D040F299310EA00EF066FB95F8DD00E5
:1044900002280ED0022085F8DD00062C0BD0324613
:1044A0002146284605F00DFF012085F8DD0000209B
:1044B00070BD022070BD3146284605F036FEF3E798
:1044C0002E2E2F447269766572732F53544D3332FA
:1044D000473478785F48414C5F4472697665722F43
:1044E0005372632F73746D3332673478785F686109
:1044F0006C5F687274696D2E630000002DE9F05FD7
:1045000004460E4617461D46062E0FD076B1012EE4
:104510000CD0022E0AD0032E08D0042E06D0052E71
:1045200004D041F2C2616DA00EF016FB94F8DD00DC
:1045300002282DD094F8DC0001282CD0012084F82A
:10454000DC00022084F8DD000723062E25D09C2005
:104550003A4600EBC618012F48D08020A82101EB75
:10456000C61941014FF4005A4FF4405B00EBC617E7
:10457000022A40D0042A75D0082A78D084F8DD3089
:10458000002084F8DC0094F8DD00072869D015E0ED
:104590000220BDE8F09F0220FBE7012F14D0022F7C
:1045A00016D0042F18D0082F1AD084F8DD30002040
:1045B00084F8DC0094F8DD00072815D00120DC34F5
:1045C000607000202070E4E721682868C861F1E786
:1045D000216828684862EDE7216828688862E9E771
:1045E00021682868C862E5E70120D2E721682868C9
:1045F00041F80800C7E7686850B1884208D05045C4
:1046000006D0584504D041F20A7134A00EF0A4FA45
:10461000A422216802EBC612286888506868C0B1DD
:104620002068C15921F44051C1512068C1596A68BC
:104630001143C1516868504504D12168A86841F808
:104640000800A0E758459ED12168A86841F80900F4
:1046500099E72068C15921F44051C15193E701E025
:1046600005E039E02168286841F809008BE76868AF
:1046700050B1884208D0504506D0584504D041F288
:10468000377116A00EF068FAAC22216802EBC61250
:10469000286888506868C8B12068C15921F4404131
:1046A000C1512068C1596A6841EA8201C1516868F4
:1046B000504504D12168A86841F8080063E75845CF
:1046C00098D12168A86841F809005CE72068C159C1
:1046D00021F44041C15156E701205AE72E2E2F44C4
:1046E0007269766572732F53544D3332473478783C
:1046F0005F48414C5F4472697665722F5372632F35
:1047000073746D3332673478785F68616C5F687298
:1047100074696D2E6300000070B504460D4635F4D3
:10472000FE0004D041F6F7010BA00EF015FA94F844
:10473000DC0001280DD0012104F8DC1F022060708C
:1047400054F8DC0C02682A4302606170002020707B
:1047500070BD022070BD00002E2E2F447269766558
:1047600072732F53544D3332473478785F48414C3D
:104770005F4472697665722F5372632F73746D3361
:1047800032673478785F68616C5F687274696D2E27
:104790006300000070B504460D4635F4FE0004D0F9
:1047A00041F61D110BA00EF0D7F994F8DC0001289A
:1047B0000DD0012104F8DC1F0220607054F8DC0CDD
:1047C0000268AA43026061700020207070BD022060
:1047D00070BD00002E2E2F447269766572732F53C0
:1047E000544D3332473478785F48414C5F447269A6
:1047F0007665722F5372632F73746D33326734781A
:10480000785F68616C5F687274696D2E6300000088
:104810002DE9F04105460E4614461F46002E03D1F1
:10482000012C28D0022C26D0012E03D1042C22D01A
:10483000082C20D0022E03D1102C1CD0202C1AD0F2
:10484000032E03D1402C16D0802C14D0042E05D179
:10485000B4F5807F0FD0B4F5007F0CD0052E05D1C4
:10486000B4F5806F07D0B4F5006F04D041F2F97150
:104870002EA00EF071F9386830B1022804D041F250
:10488000FA712AA00EF068F9386930B1082804D00E
:1048900041F2FB7125A00EF05FF9F86830B10428F1
:1048A00004D041F2FC7121A00EF056F9786950B1A4
:1048B000102808D0202806D0302804D041F2FD71FD
:1048C0001AA00EF049F9B86930B1402804D041F27D
:1048D000FE7116A00EF040F9F86930B1802804D0BE
:1048E00041F2FF7111A00EF037F995F8DD000228B2
:1048F00017D095F8DC00012815D04FF0010885F895
:10490000DC80022085F8DD003B4622463146284601
:1049100005F068FC85F8DD80002085F8DC00BDE846
:10492000F0810220FBE70220F9E700002E2E2F4441
:104930007269766572732F53544D333247347878E9
:104940005F48414C5F4472697665722F5372632FE2
:1049500073746D3332673478785F68616C5F687246
:1049600074696D2E6300000070B504460D46280B77
:1049700004D041F6A8010CA00EF0EEF894F8DC008B
:1049800001280FD0012104F8DC1F0220607054F8C8
:10499000DC0CD0F894232A43C0F8942361700020E3
:1049A000207070BD022070BD2E2E2F447269766576
:1049B00072732F53544D3332473478785F48414CEB
:1049C0005F4472697665722F5372632F73746D330F
:1049D00032673478785F68616C5F687274696D2ED5
:1049E0006300000070B504460D46280B04D041F664
:1049F000D2010CA00EF0B0F894F8DC0001280FD022
:104A0000012104F8DC1F0220607054F8DC0CD0F89F
:104A100098232A43C0F8982361700020207070BD4D
:104A2000022070BD2E2E2F447269766572732F534B
:104A3000544D3332473478785F48414C5F44726953
:104A40007665722F5372632F73746D3332673478C7
:104A5000785F68616C5F687274696D2E6300000036
:104A60002DE9F04706460D461446062D0FD075B1C8
:104A7000012D0CD0022D0AD0032D08D0042D06D014
:104A8000052D04D041F26431AFA00EF065F86069E5
:104A900030B1202804D041F26731ABA00EF05CF8B1
:104AA000A06950B1022808D0032806D0042804D0F9
:104AB00041F26831A4A00EF04FF8E06938B1B0F5CA
:104AC000006F04D041F269319FA00EF045F8206AD2
:104AD00038B1B0F5806F04D041F26A319AA00EF07F
:104AE0003BF8606A68B1B0F1007F0AD0B0F1806F26
:104AF00007D0B0F1C06F04D041F26B3192A00EF03C
:104B00002BF8A06A38B1B0F1006F04D041F26C31DB
:104B10008DA00EF021F8206B38B1B0F5803F04D0A5
:104B200041F26D3188A00EF017F8606B4FF000581D
:104B300030B1404504D041F26E3183A00EF00CF844
:104B400096F8DD0002287DD096F8DC0001287CD0A4
:104B5000012786F8DC70022086F8DD00C206062DEB
:104B600075D0E16A4FF00049C9B1914217D0414573
:104B700015D0B1F1405F12D0B1F1804F0FD0B1F13B
:104B8000A04F0CD0B1F1C04F09D0B1F1E04F06D029
:104B9000494504D041F287316BA00DF0DDFF20685C
:104BA00047F6DF71884304D041F2883166A00DF0EA
:104BB000D3FF74496068084204D041F2893162A091
:104BC0000DF0CAFFA06B30B1402804D041F28A3109
:104BD0005DA00DF0C1FFE06B800904D041F28B3184
:104BE00059A00DF0B9FF206C30B1484504D041F216
:104BF0008C3155A00DF0B0FF606C38B1B0F5807FFE
:104C000004D041F28D3150A00DF0A6FFA16C002917
:104C100049D0B1F5007F46D0B1F5C06F43D0B1F5B2
:104C2000206F40D0B1F5905F3DD0B1F5B05F3AD084
:104C3000B1F5D05F37D0A06B402829D02EE001E03D
:104C400003E004E00220BDE8F0870220FBE7E06A11
:104C500040B1904206D0404504D041F27D313AA0A7
:104C60000DF07AFF2068C00904D041F27E3136A0F1
:104C70000DF072FF606830F4FE0004D041F27F3125
:104C800031A00DF069FF2146304605F061FA35E0AC
:104C9000B1F5606F07D0B1F5F05F04D041F28F310C
:104CA00029A00DF059FFE06C38B1B0F5804F04D069
:104CB00041F2913124A00DF04FFF3349206D08429D
:104CC00004D041F2923120A00DF046FFA06D38B122
:104CD000B0F5802F04D041F294311BA00DF03CFFC1
:104CE000E06D30B1012804D041F2953116A00DF0ED
:104CF00033FF22462946304605F000FBC5EBC500D0
:104D000006EB80002168016261684162A1688162EE
:104D1000E168C162216901632946304605F0C5F9A1
:104D2000062D0CD0E06A50B98021306801EBC51126
:104D30004258E36D22F4007242EA43224250DC36CC
:104D40007770002030707EE72E2E2F4472697665D2
:104D500072732F53544D3332473478785F48414C47
:104D60005F4472697665722F5372632F73746D336B
:104D700032673478785F68616C5F687274696D2E31
:104D800063000000FFFF2080FFFF06FE2DE9F041D9
:104D900006460C461546062C0FD074B1012C0CD0DB
:104DA000022C0AD0032C08D0042C06D0052C04D0E9
:104DB00041F2CC3132A00DF0CFFE286830B101288D
:104DC00004D041F2CE312EA00DF0C6FE686838B195
:104DD000B0F5801F04D041F2CF3129A00DF0BCFE08
:104DE000A86838B1B0F5003F04D041F2D03124A01A
:104DF0000DF0B2FEE86838B1B0F5803F04D041F262
:104E0000D1311FA00DF0A8FE286930B1042804D0CC
:104E100041F2D2311AA00DF09FFE686930B102282C
:104E200004D041F2D33116A00DF096FEA86930B13E
:104E3000012804D041F2D43111A00DF08DFE96F876
:104E4000DD00022818D096F8DC00012816D00127D2
:104E500086F8DC70022086F8DD002A4621463046BE
:104E600005F02AFB2146304605F01FF9DC36777045
:104E700000203070BDE8F0810220FBE70220F9E756
:104E80002E2E2F447269766572732F53544D333230
:104E9000473478785F48414C5F4472697665722F79
:104EA0005372632F73746D3332673478785F68613F
:104EB0006C5F687274696D2E6300000070B5044603
:104EC0000D462249206888420CD02149884209D0E9
:104ED0002049884206D02049884203D063211FA080
:104EE0000DF03AFE35B1B5F5805F03D064211BA00B
:104EF0000DF032FE94F84100202801D0022070BD50
:104F000094F8400001281FD0012084F8400024209C
:104F100084F841002068016821F0010101602068E7
:104F2000016821F480510160206801682943016013
:104F30002068016841F001010160202084F84100EF
:104F4000002084F8400070BD022070BD0054004075
:104F50000058004000780040008400402E2E2F446E
:104F60007269766572732F53544D333247347878B3
:104F70005F48414C5F4472697665722F5372632FAC
:104F800073746D3332673478785F68616C5F69324F
:104F9000635F65782E63000070B504460D462049B6
:104FA000206888420CD01F49884209D01E49884297
:104FB00006D01E49884203D091211DA00DF0CCFDE2
:104FC0000F2D03D992211AA00DF0C6FD94F84100CF
:104FD000202801D0022070BD94F8400001281DD087
:104FE000012084F84000242084F8410020680168F2
:104FF00021F0010101602068016821F4706141EA3B
:10500000052101602068016841F001010160202054
:1050100084F84100002084F8400070BD022070BD7B
:1050200000540040005800400078004000840040D8
:105030002E2E2F447269766572732F53544D33327E
:10504000473478785F48414C5F4472697665722FC7
:105050005372632F73746D3332673478785F68618D
:105060006C5F6932635F65782E63000038B5044673
:105070001248A0430FD0E00312D4A00310D4600361
:105080000ED420030CD4E0020AD4A00208D460029B
:1050900006D4200204D440F23D1109A00DF05CFDBD
:1050A0001648016E41F001010166006E00F001003A
:1050B0000090134841682143416038BD0000AAAA0E
:1050C0002E2E2F447269766572732F53544D3332EE
:1050D000473478785F48414C5F4472697665722F37
:1050E0005372632F73746D3332673478785F6861FD
:1050F0006C5F6932635F65782E63000000100240C8
:105100000000014070477047026891691268436B64
:10511000002B00D0184770477047000070B5044658
:10512000002C64D05F49206888420DD05E498842D7
:105130000AD05E49884207D05D49884204D04FF4C6
:1051400008715CA00DF008FDA068B0F5806F04D375
:1051500040F2212157A00DF0FFFCE068012806D0A5
:10516000022804D040F2222152A00DF0F5FC206963
:1051700038B1B0F5004F04D040F223214DA00DF01E
:10518000EBFC6069FF2804D94FF4097149A00DF0C8
:10519000E3FCA06990B1012810D002280ED00328AA
:1051A0000CD004280AD0052808D0062806D00728E5
:1051B00004D040F225213FA00DF0CEFCE06938B1CB
:1051C000B0F5002F04D040F226213AA00DF0C4FC27
:1051D000206A38B1B0F5003F04D040F2272135A055
:1051E0000DF0BAFC94F84100002510B106E0012052
:1051F00070BD84F84050204600F044F9242084F823
:1052000041002068016821F00101016060682168A7
:1052100020F0706008612068816821F4004181609D
:10522000E068012831D0A068216840F4044088601B
:10523000E06802282FD02068416821F400614160B5
:1052400020684168294A114341602068C16821F4FF
:105250000041C160D4E904010843A16940EA01208A
:105260002168C860D4E90701084321680860206804
:10527000016841F0010101606564202084F841006B
:10528000256384F84250002070BDA068216840F476
:1052900000408860CCE72068416841F400614160CB
:1052A000CEE7000000540040005800400078004065
:1052B000008400402E2E2F447269766572732F533E
:1052C000544D3332473478785F48414C5F447269BB
:1052D0007665722F5372632F73746D33326734782F
:1052E000785F68616C5F6932632E63000080000242
:1052F00070477047704700000349884202D1034855
:10530000C06800477047000050730020DC01002097
:10531000704700002DE9F84F0446DDE90A7A884617
:1053200091461D46012D06D0022D04D040F6344191
:1053300041A00DF011FC94F84100202802D0022079
:10534000BDE8F88F4FB1BAF1000F06D0206881692F
:10535000C943090406D40220F2E74FF400706064E8
:105360000120EDE794F84010012918D001212434E0
:105370002177222161774021A177002626622760CC
:10538000A4F806A03A49A1603A492161C4F82880EE
:10539000E188243CFF2904D9FF21218503E0022074
:1053A000CEE7618D218509F0FF03012D23D04FEA5F
:1053B000192181622365E06B4FF0200900B32E496B
:1053C000C162E16B2D484863E06B0663E06B866366
:1053D0002168238D24313A46E06BFEF735FBD0B1CE
:1053E000403484F80190A670606840F0100060605E
:1053F00026700120A4E783624FF0FF302065DAE7D2
:10540000403484F80190A670606840F080006060CD
:105410002670012094E71A480090EAB20023414622
:10542000204605F097FE84F840600121204605F0F3
:10543000E3F8002084E700002E2E2F447269766581
:1054400072732F53544D3332473478785F48414C50
:105450005F4472697665722F5372632F73746D3374
:1054600032673478785F68616C5F6932632E6300FD
:105470000000FFFFA1AD000841A500082FA500080E
:10548000002000802DE9F0419CB00646142117A8A9
:10549000FAF73BFF542102A8FAF737FF2649306894
:1054A000884246D14FF08008CDF8088000250A9543
:1054B00002A800F01DFC08B1FCF771FD1F4CE06C68
:1054C00040F00100E064E06C00F0010001904FF456
:1054D0004070179012271897199502201A900420EF
:1054E0001B9017A9B806FEF773FBA06D40F480006F
:1054F000A065A06D00F480000190124C104820605F
:105500006760A560E560C4F810806561A561E5612C
:1055100025622046FEF786F908B1FCF740FDF463EA
:10552000A66200220A21212000F09AF8212000F032
:1055300063F81CB0BDE8F081005800400010024044
:105540006C000240A47300207047704702488168D5
:1055500042681144816070474001002010B500246A
:10556000032000F0CDF80F2000F008F808B1012466
:1055700001E000F029F8204610BD000070B5054696
:1055800000240F4E7068002817D04FF47A71B1FBD9
:10559000F0F00C490968B1FBF0F002F042F908B1F3
:1055A00001240BE0102D06D200222946501E00F0E7
:1055B00057F8356002E0012400E00124204670BD68
:1055C000400100204C01002082B00A48016E41F0E9
:1055D00001010166016E01F001010191816D41F04F
:1055E00080518165806D00F08050019002B000F024
:1055F00077BB00000010024010B50446002C03DA0F
:10560000D22108A00DF0A8FA002C09DB04F01F013C
:10561000012088406109890001F1E021C1F8000101
:1056200010BD00002E2E2F447269766572732F53C1
:10563000544D3332473478785F48414C5F44726947
:105640007665722F5372632F73746D3332673478BB
:10565000785F68616C5F636F727465782E630000B9
:105660002DE9F04107460D461646102E03D3BE2104
:1056700013A00DF071FA102D03D3BF2110A00DF06F
:105680006BFA1E480068C0F30223C3F10704042C20
:1056900000D90424181D072801D2002300E0DB1ED6
:1056A000012000FA04F1491E294099409840401E0B
:1056B000304001433846BDE8F04108F0A7BB000088
:1056C0002E2E2F447269766572732F53544D3332E8
:1056D000473478785F48414C5F4472697665722F31
:1056E0005372632F73746D3332673478785F6861F7
:1056F0006C5F636F727465782E6300000CED00E0E0
:1057000010B50446072C0BD0062C09D0052C07D069
:10571000042C05D0032C03D0A62108A00DF01CFA00
:1057200004F00701144A10684FF6FF03184040EADE
:10573000012012490843106010BD00002E2E2F4496
:105740007269766572732F53544D333247347878CB
:105750005F48414C5F4472697665722F5372632FC4
:1057600073746D3332673478785F68616C5F636F30
:10577000727465782E6300000CED00E00000FA05FD
:10578000F8B504460025002C43D094F83A000528CB
:1057900041D094F83A0002283FD0974920688842C7
:1057A00013D0091D884210D0091D88420DD0091D53
:1057B00088420AD0091D884207D0091D884204D0BA
:1057C0004FF49E718DA00DF0C7F9606830B180284C
:1057D00004D040F23F1189A00DF0BEF9A06840B19D
:1057E000402806D0602804D04FF4A07183A00DF0AB
:1057F000B3F9206950B1042808D0082806D00C2835
:1058000004D040F241117DA00DF0A6F9A06830B19E
:105810000EE00120F8BD0120F8BD0120F8BDE068D0
:1058200030B1202804D040F24F1174A00DF094F94B
:10583000207D30B1012804D040F251116FA00DF04D
:105840008BF9A069382804D940F253116BA00DF0F0
:1058500083F9A069A8B1206A50B1022808D00428B1
:1058600006D0062804D040F2571164A00DF074F958
:10587000E06930B1012804D04FF4AC715FA00DF0A5
:105880006BF9A068402825D1606A68B1B0F5802F17
:105890000AD0B0F5003F07D0B0F5C02F04D040F2D9
:1058A0005D1156A00DF058F9A06A98B1B0F5804F7F
:1058B00010D0B0F5004F0DD0B0F5404F0AD0B0F584
:1058C000803F07D0B0F5A03F04D04FF4AF714BA09C
:1058D0000DF042F9E06A30B1102804D040F26111B5
:1058E00046A00DF039F9E06A10280FD1206B1F286F
:1058F00004D94FF4B27141A00DF02EF9606B1F284E
:1059000004D940F265113DA00DF026F94A48016E18
:1059100041F001010166006E00F00100009094F872
:105920003A0010B9002084F83900204600F088F8C9
:10593000A168424A4FF48070402936D0602934D0A3
:1059400021680B68E66A23F0100333430B60D4E947
:1059500001131943D4E9033633431943237D012B43
:1059600000D000200143606A0143A06A0143208EF9
:1059700041EAC04094F8341040EA016120680368AD
:1059800013401943016020688169002909DBD4E9CB
:1059900006121143226A836923F03F031A4311431D
:1059A000816194F83A0010B324E021680B68E66A3C
:1059B00023F0100333430B60D4E901131943267D10
:1059C0002369012E00D000200343606A194301437C
:1059D000A06A0143208E41EAC04094F8341040EAA6
:1059E000016120680368134019430160CBE701207F
:1059F00084F83A002846F8BD000301402E2E2F44BB
:105A00007269766572732F53544D33324734787808
:105A10005F48414C5F4472697665722F5372632F01
:105A200073746D3332673478785F68616C5F6F7060
:105A3000616D702E6300000000100240113E00E016
:105A400030B587B00446142102A8FAF75EFC2C4D4D
:105A5000216800232B4A03244FF09040A94210D123
:105A6000D16C41F00101D164D16C01F001010191CF
:105A70000E2102910394049302A9FEF7A9F807B03E
:105A800030BD1F4D2D1DA9420FD1D16C41F0010138
:105A9000D164D16C01F001010191E02102910394E4
:105AA000049302A9FEF794F8E9E7154D1648083566
:105AB000A9420FD1D16C41F00201D164D16C01F047
:105AC00002010191072102910394049302A9FEF7B8
:105AD0007FF8D4E70A4D0C35A942D0D1D16C41F002
